{
    "contractName": "DogeFellas",
    "abi": [
        {
            "inputs": [],
            "stateMutability": "nonpayable",
            "type": "constructor"
        },
        {
            "anonymous": false,
            "inputs": [
                {
                    "indexed": true,
                    "internalType": "address",
                    "name": "owner",
                    "type": "address"
                },
                {
                    "indexed": true,
                    "internalType": "address",
                    "name": "approved",
                    "type": "address"
                },
                {
                    "indexed": true,
                    "internalType": "uint256",
                    "name": "tokenId",
                    "type": "uint256"
                }
            ],
            "name": "Approval",
            "type": "event"
        },
        {
            "anonymous": false,
            "inputs": [
                {
                    "indexed": true,
                    "internalType": "address",
                    "name": "owner",
                    "type": "address"
                },
                {
                    "indexed": true,
                    "internalType": "address",
                    "name": "operator",
                    "type": "address"
                },
                {
                    "indexed": false,
                    "internalType": "bool",
                    "name": "approved",
                    "type": "bool"
                }
            ],
            "name": "ApprovalForAll",
            "type": "event"
        },
        {
            "anonymous": false,
            "inputs": [
                {
                    "indexed": true,
                    "internalType": "address",
                    "name": "previousOwner",
                    "type": "address"
                },
                {
                    "indexed": true,
                    "internalType": "address",
                    "name": "newOwner",
                    "type": "address"
                }
            ],
            "name": "OwnershipTransferred",
            "type": "event"
        },
        {
            "anonymous": false,
            "inputs": [
                {
                    "indexed": true,
                    "internalType": "address",
                    "name": "from",
                    "type": "address"
                },
                {
                    "indexed": true,
                    "internalType": "address",
                    "name": "to",
                    "type": "address"
                },
                {
                    "indexed": true,
                    "internalType": "uint256",
                    "name": "tokenId",
                    "type": "uint256"
                }
            ],
            "name": "Transfer",
            "type": "event"
        },
        {
            "inputs": [],
            "name": "TOTAL_VOUCHER_SUPPLY",
            "outputs": [
                {
                    "internalType": "uint256",
                    "name": "",
                    "type": "uint256"
                }
            ],
            "stateMutability": "view",
            "type": "function"
        },
        {
            "inputs": [],
            "name": "_paused",
            "outputs": [
                {
                    "internalType": "bool",
                    "name": "",
                    "type": "bool"
                }
            ],
            "stateMutability": "view",
            "type": "function"
        },
        {
            "inputs": [
                {
                    "internalType": "address",
                    "name": "to",
                    "type": "address"
                },
                {
                    "internalType": "uint256",
                    "name": "tokenId",
                    "type": "uint256"
                }
            ],
            "name": "approve",
            "outputs": [],
            "stateMutability": "nonpayable",
            "type": "function"
        },
        {
            "inputs": [
                {
                    "internalType": "address",
                    "name": "owner",
                    "type": "address"
                }
            ],
            "name": "balanceOf",
            "outputs": [
                {
                    "internalType": "uint256",
                    "name": "",
                    "type": "uint256"
                }
            ],
            "stateMutability": "view",
            "type": "function"
        },
        {
            "inputs": [],
            "name": "baseExtension",
            "outputs": [
                {
                    "internalType": "string",
                    "name": "",
                    "type": "string"
                }
            ],
            "stateMutability": "view",
            "type": "function"
        },
        {
            "inputs": [],
            "name": "epicStart",
            "outputs": [
                {
                    "internalType": "uint256",
                    "name": "",
                    "type": "uint256"
                }
            ],
            "stateMutability": "view",
            "type": "function"
        },
        {
            "inputs": [
                {
                    "internalType": "uint256",
                    "name": "tokenId",
                    "type": "uint256"
                }
            ],
            "name": "getApproved",
            "outputs": [
                {
                    "internalType": "address",
                    "name": "",
                    "type": "address"
                }
            ],
            "stateMutability": "view",
            "type": "function"
        },
        {
            "inputs": [],
            "name": "getPrice",
            "outputs": [
                {
                    "internalType": "uint256",
                    "name": "",
                    "type": "uint256"
                }
            ],
            "stateMutability": "view",
            "type": "function"
        },
        {
            "inputs": [
                {
                    "internalType": "address",
                    "name": "owner",
                    "type": "address"
                },
                {
                    "internalType": "address",
                    "name": "operator",
                    "type": "address"
                }
            ],
            "name": "isApprovedForAll",
            "outputs": [
                {
                    "internalType": "bool",
                    "name": "",
                    "type": "bool"
                }
            ],
            "stateMutability": "view",
            "type": "function"
        },
        {
            "inputs": [],
            "name": "legendaryStart",
            "outputs": [
                {
                    "internalType": "uint256",
                    "name": "",
                    "type": "uint256"
                }
            ],
            "stateMutability": "view",
            "type": "function"
        },
        {
            "inputs": [
                {
                    "internalType": "uint256",
                    "name": "mintAmount",
                    "type": "uint256"
                },
                {
                    "internalType": "string",
                    "name": "level",
                    "type": "string"
                }
            ],
            "name": "mintVoucher",
            "outputs": [],
            "stateMutability": "payable",
            "type": "function"
        },
        {
            "inputs": [],
            "name": "name",
            "outputs": [
                {
                    "internalType": "string",
                    "name": "",
                    "type": "string"
                }
            ],
            "stateMutability": "view",
            "type": "function"
        },
        {
            "inputs": [],
            "name": "owner",
            "outputs": [
                {
                    "internalType": "address",
                    "name": "",
                    "type": "address"
                }
            ],
            "stateMutability": "view",
            "type": "function"
        },
        {
            "inputs": [
                {
                    "internalType": "uint256",
                    "name": "tokenId",
                    "type": "uint256"
                }
            ],
            "name": "ownerOf",
            "outputs": [
                {
                    "internalType": "address",
                    "name": "",
                    "type": "address"
                }
            ],
            "stateMutability": "view",
            "type": "function"
        },
        {
            "inputs": [],
            "name": "rareStart",
            "outputs": [
                {
                    "internalType": "uint256",
                    "name": "",
                    "type": "uint256"
                }
            ],
            "stateMutability": "view",
            "type": "function"
        },
        {
            "inputs": [],
            "name": "renounceOwnership",
            "outputs": [],
            "stateMutability": "nonpayable",
            "type": "function"
        },
        {
            "inputs": [],
            "name": "reserveGiveaway",
            "outputs": [],
            "stateMutability": "nonpayable",
            "type": "function"
        },
        {
            "inputs": [
                {
                    "internalType": "address",
                    "name": "from",
                    "type": "address"
                },
                {
                    "internalType": "address",
                    "name": "to",
                    "type": "address"
                },
                {
                    "internalType": "uint256",
                    "name": "tokenId",
                    "type": "uint256"
                }
            ],
            "name": "safeTransferFrom",
            "outputs": [],
            "stateMutability": "nonpayable",
            "type": "function"
        },
        {
            "inputs": [
                {
                    "internalType": "address",
                    "name": "from",
                    "type": "address"
                },
                {
                    "internalType": "address",
                    "name": "to",
                    "type": "address"
                },
                {
                    "internalType": "uint256",
                    "name": "tokenId",
                    "type": "uint256"
                },
                {
                    "internalType": "bytes",
                    "name": "_data",
                    "type": "bytes"
                }
            ],
            "name": "safeTransferFrom",
            "outputs": [],
            "stateMutability": "nonpayable",
            "type": "function"
        },
        {
            "inputs": [
                {
                    "internalType": "address",
                    "name": "operator",
                    "type": "address"
                },
                {
                    "internalType": "bool",
                    "name": "approved",
                    "type": "bool"
                }
            ],
            "name": "setApprovalForAll",
            "outputs": [],
            "stateMutability": "nonpayable",
            "type": "function"
        },
        {
            "inputs": [
                {
                    "internalType": "string",
                    "name": "baseURI",
                    "type": "string"
                }
            ],
            "name": "setBaseURI",
            "outputs": [],
            "stateMutability": "nonpayable",
            "type": "function"
        },
        {
            "inputs": [
                {
                    "internalType": "bool",
                    "name": "val",
                    "type": "bool"
                }
            ],
            "name": "setPause",
            "outputs": [],
            "stateMutability": "nonpayable",
            "type": "function"
        },
        {
            "inputs": [
                {
                    "internalType": "uint256",
                    "name": "_newPrice",
                    "type": "uint256"
                }
            ],
            "name": "setPrice",
            "outputs": [],
            "stateMutability": "nonpayable",
            "type": "function"
        },
        {
            "inputs": [
                {
                    "internalType": "bytes4",
                    "name": "interfaceId",
                    "type": "bytes4"
                }
            ],
            "name": "supportsInterface",
            "outputs": [
                {
                    "internalType": "bool",
                    "name": "",
                    "type": "bool"
                }
            ],
            "stateMutability": "view",
            "type": "function"
        },
        {
            "inputs": [],
            "name": "symbol",
            "outputs": [
                {
                    "internalType": "string",
                    "name": "",
                    "type": "string"
                }
            ],
            "stateMutability": "view",
            "type": "function"
        },
        {
            "inputs": [
                {
                    "internalType": "uint256",
                    "name": "index",
                    "type": "uint256"
                }
            ],
            "name": "tokenByIndex",
            "outputs": [
                {
                    "internalType": "uint256",
                    "name": "",
                    "type": "uint256"
                }
            ],
            "stateMutability": "view",
            "type": "function"
        },
        {
            "inputs": [
                {
                    "internalType": "address",
                    "name": "owner",
                    "type": "address"
                },
                {
                    "internalType": "uint256",
                    "name": "index",
                    "type": "uint256"
                }
            ],
            "name": "tokenOfOwnerByIndex",
            "outputs": [
                {
                    "internalType": "uint256",
                    "name": "",
                    "type": "uint256"
                }
            ],
            "stateMutability": "view",
            "type": "function"
        },
        {
            "inputs": [
                {
                    "internalType": "uint256",
                    "name": "tokenId",
                    "type": "uint256"
                }
            ],
            "name": "tokenURI",
            "outputs": [
                {
                    "internalType": "string",
                    "name": "",
                    "type": "string"
                }
            ],
            "stateMutability": "view",
            "type": "function"
        },
        {
            "inputs": [
                {
                    "internalType": "address",
                    "name": "_owner",
                    "type": "address"
                }
            ],
            "name": "tokensOfOwner",
            "outputs": [
                {
                    "internalType": "uint256[]",
                    "name": "",
                    "type": "uint256[]"
                }
            ],
            "stateMutability": "view",
            "type": "function"
        },
        {
            "inputs": [],
            "name": "totalSupply",
            "outputs": [
                {
                    "internalType": "uint256",
                    "name": "",
                    "type": "uint256"
                }
            ],
            "stateMutability": "view",
            "type": "function"
        },
        {
            "inputs": [
                {
                    "internalType": "address",
                    "name": "from",
                    "type": "address"
                },
                {
                    "internalType": "address",
                    "name": "to",
                    "type": "address"
                },
                {
                    "internalType": "uint256",
                    "name": "tokenId",
                    "type": "uint256"
                }
            ],
            "name": "transferFrom",
            "outputs": [],
            "stateMutability": "nonpayable",
            "type": "function"
        },
        {
            "inputs": [
                {
                    "internalType": "address",
                    "name": "newOwner",
                    "type": "address"
                }
            ],
            "name": "transferOwnership",
            "outputs": [],
            "stateMutability": "nonpayable",
            "type": "function"
        },
        {
            "inputs": [
                {
                    "internalType": "address",
                    "name": "_owner",
                    "type": "address"
                }
            ],
            "name": "walletOfOwner",
            "outputs": [
                {
                    "internalType": "uint256[]",
                    "name": "",
                    "type": "uint256[]"
                }
            ],
            "stateMutability": "view",
            "type": "function"
        },
        {
            "inputs": [],
            "name": "withdraw",
            "outputs": [],
            "stateMutability": "nonpayable",
            "type": "function"
        }
    ],
    "bytecode": "60c06040526005608081905264173539b7b760d91b60a09081526200002891600c9190620001db565b506032600d5566f8b0a10e470000600e55600f805460ff191690556001601055600a60115560146012553480156200005f57600080fd5b50604080518082018252600a815269446f676546656c6c617360b01b60208083019182528351808501909452600684526546454c4c415360d01b908401528151919291620000b091600091620001db565b508051620000c6906001906020840190620001db565b505050620000e3620000dd6200010d60201b60201c565b62000111565b62000107604051806060016040528060238152602001620028ae6023913962000163565b620002be565b3390565b600a80546001600160a01b038381166001600160a01b0319831681179093556040519116919082907f8be0079c531659141344cd1fd0a4f28419497f9722a3daafe3b4186f6b6457e090600090a35050565b600a546001600160a01b03163314620001c25760405162461bcd60e51b815260206004820181905260248201527f4f776e61626c653a2063616c6c6572206973206e6f7420746865206f776e6572604482015260640160405180910390fd5b8051620001d790600b906020840190620001db565b5050565b828054620001e99062000281565b90600052602060002090601f0160209004810192826200020d576000855562000258565b82601f106200022857805160ff191683800117855562000258565b8280016001018555821562000258579182015b82811115620002585782518255916020019190600101906200023b565b50620002669291506200026a565b5090565b5b808211156200026657600081556001016200026b565b600181811c908216806200029657607f821691505b60208210811415620002b857634e487b7160e01b600052602260045260246000fd5b50919050565b6125e080620002ce6000396000f3fe6080604052600436106101f95760003560e01c806370a082311161010d578063abe99ef7116100a0578063c66828621161006f578063c668286214610571578063c87b56dd14610586578063e64f82aa146105a6578063e985e9c5146105bc578063f2fde38b1461060557600080fd5b8063abe99ef714610508578063b21531981461051e578063b88d4fde14610531578063bedb86fb1461055157600080fd5b806391b7f5ed116100dc57806391b7f5ed1461049e57806395d89b41146104be57806398d5fdca146104d3578063a22cb465146104e857600080fd5b806370a082311461042b578063715018a61461044b5780638462151c146104605780638da5cb5b1461048057600080fd5b80632f745c5911610190578063438b63001161015f578063438b6300146103885780634f6ccce7146103b557806350ae65a4146103d557806355f804b3146103eb5780636352211e1461040b57600080fd5b80632f745c591461031d578063367d95f01461033d5780633ccfd60b1461035357806342842e0e1461036857600080fd5b806316c61ccc116101cc57806316c61ccc146102af57806318160ddd146102c95780631a43ccb2146102e857806323b872dd146102fd57600080fd5b806301ffc9a7146101fe57806306fdde0314610233578063081812fc14610255578063095ea7b31461028d575b600080fd5b34801561020a57600080fd5b5061021e610219366004612109565b610625565b60405190151581526020015b60405180910390f35b34801561023f57600080fd5b50610248610650565b60405161022a9190612349565b34801561026157600080fd5b50610275610270366004612178565b6106e2565b6040516001600160a01b03909116815260200161022a565b34801561029957600080fd5b506102ad6102a83660046120c4565b61077c565b005b3480156102bb57600080fd5b50600f5461021e9060ff1681565b3480156102d557600080fd5b506008545b60405190815260200161022a565b3480156102f457600080fd5b506102ad610892565b34801561030957600080fd5b506102ad610318366004611fe2565b61096d565b34801561032957600080fd5b506102da6103383660046120c4565b61099e565b34801561034957600080fd5b506102da60125481565b34801561035f57600080fd5b506102ad610a34565b34801561037457600080fd5b506102ad610383366004611fe2565b610a8d565b34801561039457600080fd5b506103a86103a3366004611f94565b610aa8565b60405161022a9190612305565b3480156103c157600080fd5b506102da6103d0366004612178565b610b4a565b3480156103e157600080fd5b506102da611e6181565b3480156103f757600080fd5b506102ad610406366004612143565b610bdd565b34801561041757600080fd5b50610275610426366004612178565b610c1a565b34801561043757600080fd5b506102da610446366004611f94565b610c91565b34801561045757600080fd5b506102ad610d18565b34801561046c57600080fd5b506103a861047b366004611f94565b610d4e565b34801561048c57600080fd5b50600a546001600160a01b0316610275565b3480156104aa57600080fd5b506102ad6104b9366004612178565b610e4e565b3480156104ca57600080fd5b50610248610e7d565b3480156104df57600080fd5b50600e546102da565b3480156104f457600080fd5b506102ad61050336600461209a565b610e8c565b34801561051457600080fd5b506102da60105481565b6102ad61052c366004612191565b610f51565b34801561053d57600080fd5b506102ad61054c36600461201e565b6111e1565b34801561055d57600080fd5b506102ad61056c3660046120ee565b611213565b34801561057d57600080fd5b50610248611250565b34801561059257600080fd5b506102486105a1366004612178565b6112de565b3480156105b257600080fd5b506102da60115481565b3480156105c857600080fd5b5061021e6105d7366004611faf565b6001600160a01b03918216600090815260056020908152604080832093909416825291909152205460ff1690565b34801561061157600080fd5b506102ad610620366004611f94565b6113bc565b60006001600160e01b0319821663780e9d6360e01b148061064a575061064a82611457565b92915050565b60606000805461065f906124c2565b80601f016020809104026020016040519081016040528092919081815260200182805461068b906124c2565b80156106d85780601f106106ad576101008083540402835291602001916106d8565b820191906000526020600020905b8154815290600101906020018083116106bb57829003601f168201915b5050505050905090565b6000818152600260205260408120546001600160a01b03166107605760405162461bcd60e51b815260206004820152602c60248201527f4552433732313a20617070726f76656420717565727920666f72206e6f6e657860448201526b34b9ba32b73a103a37b5b2b760a11b60648201526084015b60405180910390fd5b506000908152600460205260409020546001600160a01b031690565b600061078782610c1a565b9050806001600160a01b0316836001600160a01b031614156107f55760405162461bcd60e51b815260206004820152602160248201527f4552433732313a20617070726f76616c20746f2063757272656e74206f776e656044820152603960f91b6064820152608401610757565b336001600160a01b0382161480610811575061081181336105d7565b6108835760405162461bcd60e51b815260206004820152603860248201527f4552433732313a20617070726f76652063616c6c6572206973206e6f74206f7760448201527f6e6572206e6f7220617070726f76656420666f7220616c6c00000000000000006064820152608401610757565b61088d83836114a7565b505050565b600a546001600160a01b031633146108bc5760405162461bcd60e51b8152600401610757906123ae565b60006108c760085490565b9050600d5481106109265760405162461bcd60e51b8152602060048201526024808201527f416c72656164792072657365727665642074686520666972737420766f75636860448201526332b9399760e11b6064820152608401610757565b60005b600d5481101561096957610957610948600a546001600160a01b031690565b6109528385612434565b611515565b80610961816124f7565b915050610929565b5050565b610977338261152f565b6109935760405162461bcd60e51b8152600401610757906123e3565b61088d838383611626565b60006109a983610c91565b8210610a0b5760405162461bcd60e51b815260206004820152602b60248201527f455243373231456e756d657261626c653a206f776e657220696e646578206f7560448201526a74206f6620626f756e647360a81b6064820152608401610757565b506001600160a01b03919091166000908152600660209081526040808320938352929052205490565b600a546001600160a01b03163314610a5e5760405162461bcd60e51b8152600401610757906123ae565b6040514790339082156108fc029083906000818181858888f19350505050158015610969573d6000803e3d6000fd5b61088d838383604051806020016040528060008152506111e1565b60606000610ab583610c91565b905060008167ffffffffffffffff811115610ad257610ad261257e565b604051908082528060200260200182016040528015610afb578160200160208202803683370190505b50905060005b82811015610b4257610b13858261099e565b828281518110610b2557610b25612568565b602090810291909101015280610b3a816124f7565b915050610b01565b509392505050565b6000610b5560085490565b8210610bb85760405162461bcd60e51b815260206004820152602c60248201527f455243373231456e756d657261626c653a20676c6f62616c20696e646578206f60448201526b7574206f6620626f756e647360a01b6064820152608401610757565b60088281548110610bcb57610bcb612568565b90600052602060002001549050919050565b600a546001600160a01b03163314610c075760405162461bcd60e51b8152600401610757906123ae565b805161096990600b906020840190611e39565b6000818152600260205260408120546001600160a01b03168061064a5760405162461bcd60e51b815260206004820152602960248201527f4552433732313a206f776e657220717565727920666f72206e6f6e657869737460448201526832b73a103a37b5b2b760b91b6064820152608401610757565b60006001600160a01b038216610cfc5760405162461bcd60e51b815260206004820152602a60248201527f4552433732313a2062616c616e636520717565727920666f7220746865207a65604482015269726f206164647265737360b01b6064820152608401610757565b506001600160a01b031660009081526003602052604090205490565b600a546001600160a01b03163314610d425760405162461bcd60e51b8152600401610757906123ae565b610d4c60006117d1565b565b60606000610d5b83610c91565b905080610d78576040805160008082526020820190925290610b42565b60008167ffffffffffffffff811115610d9357610d9361257e565b604051908082528060200260200182016040528015610dbc578160200160208202803683370190505b5090506000805b6001610dce60085490565b610dd8919061247f565b8111610e3e57856001600160a01b0316610df182610c1a565b6001600160a01b03161415610e2c5780838381518110610e1357610e13612568565b602090810291909101015281610e28816124f7565b9250505b80610e36816124f7565b915050610dc3565b5090949350505050565b50919050565b600a546001600160a01b03163314610e785760405162461bcd60e51b8152600401610757906123ae565b600e55565b60606001805461065f906124c2565b6001600160a01b038216331415610ee55760405162461bcd60e51b815260206004820152601960248201527f4552433732313a20617070726f766520746f2063616c6c6572000000000000006044820152606401610757565b3360008181526005602090815260408083206001600160a01b03871680855290835292819020805460ff191686151590811790915590519081529192917f17307eab39ab6107e8899845ad3d59bd9653f200f220920489ca2b5937696c31910160405180910390a35050565b6000610f5c60085490565b600f5490915060ff1615610fbe5760405162461bcd60e51b815260206004820152602360248201527f566f7563686572207072652d73616c6520686173206e6f7420796574206265676044820152623ab71760e91b6064820152608401610757565b611e61811061101b5760405162461bcd60e51b815260206004820152602360248201527f566f7563686572207072652d73616c652068617320616c726561647920656e6460448201526232b21760e91b6064820152608401610757565b6000831161106b5760405162461bcd60e51b815260206004820152601b60248201527f596f752063616e6e6f74206d696e74203020766f7563686572732e00000000006044820152606401610757565b60028311156110e25760405162461bcd60e51b815260206004820152603760248201527f596f7520617265206e6f7420616c6c6f77656420746f206d696e74207468697360448201527f206d616e7920766f756368657273206174206f6e63652e0000000000000000006064820152608401610757565b611e616110ef8483612434565b11156111495760405162461bcd60e51b815260206004820152602360248201527f45786365656473206d6178696d756d20766f75636865727320617661696c616260448201526236329760e91b6064820152608401610757565b3483600e546111589190612460565b146111b15760405162461bcd60e51b8152602060048201526024808201527f416d6f756e74206f662045746865722073656e74206973206e6f7420636f727260448201526332b1ba1760e11b6064820152608401610757565b60015b8381116111db576111c9336109528385612434565b806111d3816124f7565b9150506111b4565b50505050565b6111eb338361152f565b6112075760405162461bcd60e51b8152600401610757906123e3565b6111db84848484611823565b600a546001600160a01b0316331461123d5760405162461bcd60e51b8152600401610757906123ae565b600f805460ff1916911515919091179055565b600c805461125d906124c2565b80601f0160208091040260200160405190810160405280929190818152602001828054611289906124c2565b80156112d65780601f106112ab576101008083540402835291602001916112d6565b820191906000526020600020905b8154815290600101906020018083116112b957829003601f168201915b505050505081565b6000818152600260205260409020546060906001600160a01b031661135d5760405162461bcd60e51b815260206004820152602f60248201527f4552433732314d657461646174613a2055524920717565727920666f72206e6f60448201526e3732bc34b9ba32b73a103a37b5b2b760891b6064820152608401610757565b6000611367611856565b9050600081511161138757604051806020016040528060008152506113b5565b8061139184611865565b600c6040516020016113a593929190612204565b6040516020818303038152906040525b9392505050565b600a546001600160a01b031633146113e65760405162461bcd60e51b8152600401610757906123ae565b6001600160a01b03811661144b5760405162461bcd60e51b815260206004820152602660248201527f4f776e61626c653a206e6577206f776e657220697320746865207a65726f206160448201526564647265737360d01b6064820152608401610757565b611454816117d1565b50565b60006001600160e01b031982166380ac58cd60e01b148061148857506001600160e01b03198216635b5e139f60e01b145b8061064a57506301ffc9a760e01b6001600160e01b031983161461064a565b600081815260046020526040902080546001600160a01b0319166001600160a01b03841690811790915581906114dc82610c1a565b6001600160a01b03167f8c5be1e5ebec7d5bd14f71427d1e84f3dd0314c0f7b2291e5b200ac8c7c3b92560405160405180910390a45050565b610969828260405180602001604052806000815250611963565b6000818152600260205260408120546001600160a01b03166115a85760405162461bcd60e51b815260206004820152602c60248201527f4552433732313a206f70657261746f7220717565727920666f72206e6f6e657860448201526b34b9ba32b73a103a37b5b2b760a11b6064820152608401610757565b60006115b383610c1a565b9050806001600160a01b0316846001600160a01b031614806115ee5750836001600160a01b03166115e3846106e2565b6001600160a01b0316145b8061161e57506001600160a01b0380821660009081526005602090815260408083209388168352929052205460ff165b949350505050565b826001600160a01b031661163982610c1a565b6001600160a01b0316146116a15760405162461bcd60e51b815260206004820152602960248201527f4552433732313a207472616e73666572206f6620746f6b656e2074686174206960448201526839903737ba1037bbb760b91b6064820152608401610757565b6001600160a01b0382166117035760405162461bcd60e51b8152602060048201526024808201527f4552433732313a207472616e7366657220746f20746865207a65726f206164646044820152637265737360e01b6064820152608401610757565b61170e838383611996565b6117196000826114a7565b6001600160a01b038316600090815260036020526040812080546001929061174290849061247f565b90915550506001600160a01b0382166000908152600360205260408120805460019290611770908490612434565b909155505060008181526002602052604080822080546001600160a01b0319166001600160a01b0386811691821790925591518493918716917fddf252ad1be2c89b69c2b068fc378daa952ba7f163c4a11628f55a4df523b3ef91a4505050565b600a80546001600160a01b038381166001600160a01b0319831681179093556040519116919082907f8be0079c531659141344cd1fd0a4f28419497f9722a3daafe3b4186f6b6457e090600090a35050565b61182e848484611626565b61183a84848484611a4e565b6111db5760405162461bcd60e51b81526004016107579061235c565b6060600b805461065f906124c2565b6060816118895750506040805180820190915260018152600360fc1b602082015290565b8160005b81156118b3578061189d816124f7565b91506118ac9050600a8361244c565b915061188d565b60008167ffffffffffffffff8111156118ce576118ce61257e565b6040519080825280601f01601f1916602001820160405280156118f8576020820181803683370190505b5090505b841561161e5761190d60018361247f565b915061191a600a86612512565b611925906030612434565b60f81b81838151811061193a5761193a612568565b60200101906001600160f81b031916908160001a90535061195c600a8661244c565b94506118fc565b61196d8383611b5b565b61197a6000848484611a4e565b61088d5760405162461bcd60e51b81526004016107579061235c565b6001600160a01b0383166119f1576119ec81600880546000838152600960205260408120829055600182018355919091527ff3f7a9fe364faab93b216da50a3214154f22a0a2b415b23a84c8169e8b636ee30155565b611a14565b816001600160a01b0316836001600160a01b031614611a1457611a148382611ca9565b6001600160a01b038216611a2b5761088d81611d46565b826001600160a01b0316826001600160a01b03161461088d5761088d8282611df5565b60006001600160a01b0384163b15611b5057604051630a85bd0160e11b81526001600160a01b0385169063150b7a0290611a929033908990889088906004016122c8565b602060405180830381600087803b158015611aac57600080fd5b505af1925050508015611adc575060408051601f3d908101601f19168201909252611ad991810190612126565b60015b611b36573d808015611b0a576040519150601f19603f3d011682016040523d82523d6000602084013e611b0f565b606091505b508051611b2e5760405162461bcd60e51b81526004016107579061235c565b805181602001fd5b6001600160e01b031916630a85bd0160e11b14905061161e565b506001949350505050565b6001600160a01b038216611bb15760405162461bcd60e51b815260206004820181905260248201527f4552433732313a206d696e7420746f20746865207a65726f20616464726573736044820152606401610757565b6000818152600260205260409020546001600160a01b031615611c165760405162461bcd60e51b815260206004820152601c60248201527f4552433732313a20746f6b656e20616c7265616479206d696e746564000000006044820152606401610757565b611c2260008383611996565b6001600160a01b0382166000908152600360205260408120805460019290611c4b908490612434565b909155505060008181526002602052604080822080546001600160a01b0319166001600160a01b03861690811790915590518392907fddf252ad1be2c89b69c2b068fc378daa952ba7f163c4a11628f55a4df523b3ef908290a45050565b60006001611cb684610c91565b611cc0919061247f565b600083815260076020526040902054909150808214611d13576001600160a01b03841660009081526006602090815260408083208584528252808320548484528184208190558352600790915290208190555b5060009182526007602090815260408084208490556001600160a01b039094168352600681528383209183525290812055565b600854600090611d589060019061247f565b60008381526009602052604081205460088054939450909284908110611d8057611d80612568565b906000526020600020015490508060088381548110611da157611da1612568565b6000918252602080832090910192909255828152600990915260408082208490558582528120556008805480611dd957611dd9612552565b6001900381819060005260206000200160009055905550505050565b6000611e0083610c91565b6001600160a01b039093166000908152600660209081526040808320868452825280832085905593825260079052919091209190915550565b828054611e45906124c2565b90600052602060002090601f016020900481019282611e675760008555611ead565b82601f10611e8057805160ff1916838001178555611ead565b82800160010185558215611ead579182015b82811115611ead578251825591602001919060010190611e92565b50611eb9929150611ebd565b5090565b5b80821115611eb95760008155600101611ebe565b600067ffffffffffffffff80841115611eed57611eed61257e565b604051601f8501601f19908116603f01168101908282118183101715611f1557611f1561257e565b81604052809350858152868686011115611f2e57600080fd5b858560208301376000602087830101525050509392505050565b80356001600160a01b0381168114611f5f57600080fd5b919050565b80358015158114611f5f57600080fd5b600082601f830112611f8557600080fd5b6113b583833560208501611ed2565b600060208284031215611fa657600080fd5b6113b582611f48565b60008060408385031215611fc257600080fd5b611fcb83611f48565b9150611fd960208401611f48565b90509250929050565b600080600060608486031215611ff757600080fd5b61200084611f48565b925061200e60208501611f48565b9150604084013590509250925092565b6000806000806080858703121561203457600080fd5b61203d85611f48565b935061204b60208601611f48565b925060408501359150606085013567ffffffffffffffff81111561206e57600080fd5b8501601f8101871361207f57600080fd5b61208e87823560208401611ed2565b91505092959194509250565b600080604083850312156120ad57600080fd5b6120b683611f48565b9150611fd960208401611f64565b600080604083850312156120d757600080fd5b6120e083611f48565b946020939093013593505050565b60006020828403121561210057600080fd5b6113b582611f64565b60006020828403121561211b57600080fd5b81356113b581612594565b60006020828403121561213857600080fd5b81516113b581612594565b60006020828403121561215557600080fd5b813567ffffffffffffffff81111561216c57600080fd5b61161e84828501611f74565b60006020828403121561218a57600080fd5b5035919050565b600080604083850312156121a457600080fd5b82359150602083013567ffffffffffffffff8111156121c257600080fd5b6121ce85828601611f74565b9150509250929050565b600081518084526121f0816020860160208601612496565b601f01601f19169290920160200192915050565b6000845160206122178285838a01612496565b85519184019161222a8184848a01612496565b8554920191600090600181811c908083168061224757607f831692505b85831081141561226557634e487b7160e01b85526022600452602485fd5b808015612279576001811461228a576122b7565b60ff198516885283880195506122b7565b60008b81526020902060005b858110156122af5781548a820152908401908801612296565b505083880195505b50939b9a5050505050505050505050565b6001600160a01b03858116825284166020820152604081018390526080606082018190526000906122fb908301846121d8565b9695505050505050565b6020808252825182820181905260009190848201906040850190845b8181101561233d57835183529284019291840191600101612321565b50909695505050505050565b6020815260006113b560208301846121d8565b60208082526032908201527f4552433732313a207472616e7366657220746f206e6f6e20455243373231526560408201527131b2b4bb32b91034b6b83632b6b2b73a32b960711b606082015260800190565b6020808252818101527f4f776e61626c653a2063616c6c6572206973206e6f7420746865206f776e6572604082015260600190565b60208082526031908201527f4552433732313a207472616e736665722063616c6c6572206973206e6f74206f6040820152701ddb995c881b9bdc88185c1c1c9bdd9959607a1b606082015260800190565b6000821982111561244757612447612526565b500190565b60008261245b5761245b61253c565b500490565b600081600019048311821515161561247a5761247a612526565b500290565b60008282101561249157612491612526565b500390565b60005b838110156124b1578181015183820152602001612499565b838111156111db5750506000910152565b600181811c908216806124d657607f821691505b60208210811415610e4857634e487b7160e01b600052602260045260246000fd5b600060001982141561250b5761250b612526565b5060010190565b6000826125215761252161253c565b500690565b634e487b7160e01b600052601160045260246000fd5b634e487b7160e01b600052601260045260246000fd5b634e487b7160e01b600052603160045260246000fd5b634e487b7160e01b600052603260045260246000fd5b634e487b7160e01b600052604160045260246000fd5b6001600160e01b03198116811461145457600080fdfea264697066735822122031b5eff2fbeba66de66ece3e5325528465d0015d802f2e709f4a5e1247af580064736f6c6343000807003368747470733a2f2f6861697267726f77746870726f2e636f6d2f6d657461646174612f",
    "sourcePath": "/home/levi/dogefellas_presale/contracts/DogeFellas.sol",
    "compiler": {
        "name": "solc",
        "version": "0.8.7+commit.e28d00a7"
    },
    "functionHashes": {
        "TOTAL_VOUCHER_SUPPLY()": "50ae65a4",
        "_paused()": "16c61ccc",
        "approve(address,uint256)": "095ea7b3",
        "balanceOf(address)": "70a08231",
        "baseExtension()": "c6682862",
        "epicStart()": "e64f82aa",
        "getApproved(uint256)": "081812fc",
        "getPrice()": "98d5fdca",
        "isApprovedForAll(address,address)": "e985e9c5",
        "legendaryStart()": "abe99ef7",
        "mintVoucher(uint256,string)": "b2153198",
        "name()": "06fdde03",
        "owner()": "8da5cb5b",
        "ownerOf(uint256)": "6352211e",
        "rareStart()": "367d95f0",
        "renounceOwnership()": "715018a6",
        "reserveGiveaway()": "1a43ccb2",
        "safeTransferFrom(address,address,uint256)": "42842e0e",
        "safeTransferFrom(address,address,uint256,bytes)": "b88d4fde",
        "setApprovalForAll(address,bool)": "a22cb465",
        "setBaseURI(string)": "55f804b3",
        "setPause(bool)": "bedb86fb",
        "setPrice(uint256)": "91b7f5ed",
        "supportsInterface(bytes4)": "01ffc9a7",
        "symbol()": "95d89b41",
        "tokenByIndex(uint256)": "4f6ccce7",
        "tokenOfOwnerByIndex(address,uint256)": "2f745c59",
        "tokenURI(uint256)": "c87b56dd",
        "tokensOfOwner(address)": "8462151c",
        "totalSupply()": "18160ddd",
        "transferFrom(address,address,uint256)": "23b872dd",
        "transferOwnership(address)": "f2fde38b",
        "walletOfOwner(address)": "438b6300",
        "withdraw()": "3ccfd60b"
    },
    "gasEstimates": {
        "creation": {
            "codeDepositCost": "1939200",
            "executionCost": "infinite",
            "totalCost": "infinite"
        },
        "external": {
            "TOTAL_VOUCHER_SUPPLY()": "284",
            "_paused()": "2345",
            "approve(address,uint256)": "infinite",
            "balanceOf(address)": "2635",
            "baseExtension()": "infinite",
            "epicStart()": "2383",
            "getApproved(uint256)": "4783",
            "getPrice()": "2381",
            "isApprovedForAll(address,address)": "infinite",
            "legendaryStart()": "2340",
            "mintVoucher(uint256,string)": "infinite",
            "name()": "infinite",
            "owner()": "2443",
            "ownerOf(uint256)": "2689",
            "rareStart()": "2363",
            "renounceOwnership()": "28185",
            "reserveGiveaway()": "infinite",
            "safeTransferFrom(address,address,uint256)": "infinite",
            "safeTransferFrom(address,address,uint256,bytes)": "infinite",
            "setApprovalForAll(address,bool)": "infinite",
            "setBaseURI(string)": "infinite",
            "setPause(bool)": "26780",
            "setPrice(uint256)": "24509",
            "supportsInterface(bytes4)": "infinite",
            "symbol()": "infinite",
            "tokenByIndex(uint256)": "6782",
            "tokenOfOwnerByIndex(address,uint256)": "4976",
            "tokenURI(uint256)": "infinite",
            "tokensOfOwner(address)": "infinite",
            "totalSupply()": "2349",
            "transferFrom(address,address,uint256)": "infinite",
            "transferOwnership(address)": "28444",
            "walletOfOwner(address)": "infinite",
            "withdraw()": "infinite"
        },
        "internal": {
            "_baseURI()": "infinite"
        }
    }
}