{
  "contractName": "DogeFellas",
  "abi": [
    {
      "inputs": [],
      "stateMutability": "nonpayable",
      "type": "constructor"
    },
    {
      "anonymous": false,
      "inputs": [
        {
          "indexed": true,
          "internalType": "address",
          "name": "owner",
          "type": "address"
        },
        {
          "indexed": true,
          "internalType": "address",
          "name": "approved",
          "type": "address"
        },
        {
          "indexed": true,
          "internalType": "uint256",
          "name": "tokenId",
          "type": "uint256"
        }
      ],
      "name": "Approval",
      "type": "event"
    },
    {
      "anonymous": false,
      "inputs": [
        {
          "indexed": true,
          "internalType": "address",
          "name": "owner",
          "type": "address"
        },
        {
          "indexed": true,
          "internalType": "address",
          "name": "operator",
          "type": "address"
        },
        {
          "indexed": false,
          "internalType": "bool",
          "name": "approved",
          "type": "bool"
        }
      ],
      "name": "ApprovalForAll",
      "type": "event"
    },
    {
      "anonymous": false,
      "inputs": [
        {
          "indexed": true,
          "internalType": "address",
          "name": "previousOwner",
          "type": "address"
        },
        {
          "indexed": true,
          "internalType": "address",
          "name": "newOwner",
          "type": "address"
        }
      ],
      "name": "OwnershipTransferred",
      "type": "event"
    },
    {
      "anonymous": false,
      "inputs": [
        {
          "indexed": true,
          "internalType": "address",
          "name": "from",
          "type": "address"
        },
        {
          "indexed": true,
          "internalType": "address",
          "name": "to",
          "type": "address"
        },
        {
          "indexed": true,
          "internalType": "uint256",
          "name": "tokenId",
          "type": "uint256"
        }
      ],
      "name": "Transfer",
      "type": "event"
    },
    {
      "inputs": [],
      "name": "TOTAL_VOUCHER_SUPPLY",
      "outputs": [
        {
          "internalType": "uint256",
          "name": "",
          "type": "uint256"
        }
      ],
      "stateMutability": "view",
      "type": "function",
      "constant": true
    },
    {
      "inputs": [],
      "name": "_paused",
      "outputs": [
        {
          "internalType": "bool",
          "name": "",
          "type": "bool"
        }
      ],
      "stateMutability": "view",
      "type": "function",
      "constant": true
    },
    {
      "inputs": [
        {
          "internalType": "address",
          "name": "to",
          "type": "address"
        },
        {
          "internalType": "uint256",
          "name": "tokenId",
          "type": "uint256"
        }
      ],
      "name": "approve",
      "outputs": [],
      "stateMutability": "nonpayable",
      "type": "function"
    },
    {
      "inputs": [
        {
          "internalType": "address",
          "name": "owner",
          "type": "address"
        }
      ],
      "name": "balanceOf",
      "outputs": [
        {
          "internalType": "uint256",
          "name": "",
          "type": "uint256"
        }
      ],
      "stateMutability": "view",
      "type": "function",
      "constant": true
    },
    {
      "inputs": [
        {
          "internalType": "uint256",
          "name": "tokenId",
          "type": "uint256"
        }
      ],
      "name": "getApproved",
      "outputs": [
        {
          "internalType": "address",
          "name": "",
          "type": "address"
        }
      ],
      "stateMutability": "view",
      "type": "function",
      "constant": true
    },
    {
      "inputs": [
        {
          "internalType": "address",
          "name": "owner",
          "type": "address"
        },
        {
          "internalType": "address",
          "name": "operator",
          "type": "address"
        }
      ],
      "name": "isApprovedForAll",
      "outputs": [
        {
          "internalType": "bool",
          "name": "",
          "type": "bool"
        }
      ],
      "stateMutability": "view",
      "type": "function",
      "constant": true
    },
    {
      "inputs": [],
      "name": "name",
      "outputs": [
        {
          "internalType": "string",
          "name": "",
          "type": "string"
        }
      ],
      "stateMutability": "view",
      "type": "function",
      "constant": true
    },
    {
      "inputs": [],
      "name": "owner",
      "outputs": [
        {
          "internalType": "address",
          "name": "",
          "type": "address"
        }
      ],
      "stateMutability": "view",
      "type": "function",
      "constant": true
    },
    {
      "inputs": [
        {
          "internalType": "uint256",
          "name": "tokenId",
          "type": "uint256"
        }
      ],
      "name": "ownerOf",
      "outputs": [
        {
          "internalType": "address",
          "name": "",
          "type": "address"
        }
      ],
      "stateMutability": "view",
      "type": "function",
      "constant": true
    },
    {
      "inputs": [],
      "name": "renounceOwnership",
      "outputs": [],
      "stateMutability": "nonpayable",
      "type": "function"
    },
    {
      "inputs": [
        {
          "internalType": "address",
          "name": "from",
          "type": "address"
        },
        {
          "internalType": "address",
          "name": "to",
          "type": "address"
        },
        {
          "internalType": "uint256",
          "name": "tokenId",
          "type": "uint256"
        }
      ],
      "name": "safeTransferFrom",
      "outputs": [],
      "stateMutability": "nonpayable",
      "type": "function"
    },
    {
      "inputs": [
        {
          "internalType": "address",
          "name": "from",
          "type": "address"
        },
        {
          "internalType": "address",
          "name": "to",
          "type": "address"
        },
        {
          "internalType": "uint256",
          "name": "tokenId",
          "type": "uint256"
        },
        {
          "internalType": "bytes",
          "name": "_data",
          "type": "bytes"
        }
      ],
      "name": "safeTransferFrom",
      "outputs": [],
      "stateMutability": "nonpayable",
      "type": "function"
    },
    {
      "inputs": [
        {
          "internalType": "address",
          "name": "operator",
          "type": "address"
        },
        {
          "internalType": "bool",
          "name": "approved",
          "type": "bool"
        }
      ],
      "name": "setApprovalForAll",
      "outputs": [],
      "stateMutability": "nonpayable",
      "type": "function"
    },
    {
      "inputs": [
        {
          "internalType": "bytes4",
          "name": "interfaceId",
          "type": "bytes4"
        }
      ],
      "name": "supportsInterface",
      "outputs": [
        {
          "internalType": "bool",
          "name": "",
          "type": "bool"
        }
      ],
      "stateMutability": "view",
      "type": "function",
      "constant": true
    },
    {
      "inputs": [],
      "name": "symbol",
      "outputs": [
        {
          "internalType": "string",
          "name": "",
          "type": "string"
        }
      ],
      "stateMutability": "view",
      "type": "function",
      "constant": true
    },
    {
      "inputs": [
        {
          "internalType": "uint256",
          "name": "index",
          "type": "uint256"
        }
      ],
      "name": "tokenByIndex",
      "outputs": [
        {
          "internalType": "uint256",
          "name": "",
          "type": "uint256"
        }
      ],
      "stateMutability": "view",
      "type": "function",
      "constant": true
    },
    {
      "inputs": [
        {
          "internalType": "address",
          "name": "owner",
          "type": "address"
        },
        {
          "internalType": "uint256",
          "name": "index",
          "type": "uint256"
        }
      ],
      "name": "tokenOfOwnerByIndex",
      "outputs": [
        {
          "internalType": "uint256",
          "name": "",
          "type": "uint256"
        }
      ],
      "stateMutability": "view",
      "type": "function",
      "constant": true
    },
    {
      "inputs": [
        {
          "internalType": "uint256",
          "name": "tokenId",
          "type": "uint256"
        }
      ],
      "name": "tokenURI",
      "outputs": [
        {
          "internalType": "string",
          "name": "",
          "type": "string"
        }
      ],
      "stateMutability": "view",
      "type": "function",
      "constant": true
    },
    {
      "inputs": [],
      "name": "totalSupply",
      "outputs": [
        {
          "internalType": "uint256",
          "name": "",
          "type": "uint256"
        }
      ],
      "stateMutability": "view",
      "type": "function",
      "constant": true
    },
    {
      "inputs": [
        {
          "internalType": "address",
          "name": "from",
          "type": "address"
        },
        {
          "internalType": "address",
          "name": "to",
          "type": "address"
        },
        {
          "internalType": "uint256",
          "name": "tokenId",
          "type": "uint256"
        }
      ],
      "name": "transferFrom",
      "outputs": [],
      "stateMutability": "nonpayable",
      "type": "function"
    },
    {
      "inputs": [
        {
          "internalType": "address",
          "name": "newOwner",
          "type": "address"
        }
      ],
      "name": "transferOwnership",
      "outputs": [],
      "stateMutability": "nonpayable",
      "type": "function"
    },
    {
      "inputs": [],
      "name": "mintVoucher",
      "outputs": [],
      "stateMutability": "payable",
      "type": "function",
      "payable": true
    },
    {
      "inputs": [
        {
          "internalType": "address",
          "name": "_owner",
          "type": "address"
        }
      ],
      "name": "walletOfOwner",
      "outputs": [
        {
          "internalType": "uint256[]",
          "name": "",
          "type": "uint256[]"
        }
      ],
      "stateMutability": "view",
      "type": "function",
      "constant": true
    },
    {
      "inputs": [
        {
          "internalType": "uint256",
          "name": "_newPrice",
          "type": "uint256"
        }
      ],
      "name": "setPrice",
      "outputs": [],
      "stateMutability": "nonpayable",
      "type": "function"
    },
    {
      "inputs": [
        {
          "internalType": "string",
          "name": "baseURI",
          "type": "string"
        }
      ],
      "name": "setBaseURI",
      "outputs": [],
      "stateMutability": "nonpayable",
      "type": "function"
    },
    {
      "inputs": [],
      "name": "getPrice",
      "outputs": [
        {
          "internalType": "uint256",
          "name": "",
          "type": "uint256"
        }
      ],
      "stateMutability": "view",
      "type": "function",
      "constant": true
    },
    {
      "inputs": [
        {
          "internalType": "bool",
          "name": "val",
          "type": "bool"
        }
      ],
      "name": "setPause",
      "outputs": [],
      "stateMutability": "nonpayable",
      "type": "function"
    },
    {
      "inputs": [],
      "name": "withdraw",
      "outputs": [],
      "stateMutability": "nonpayable",
      "type": "function"
    },
    {
      "inputs": [],
      "name": "reserveGiveaway",
      "outputs": [],
      "stateMutability": "nonpayable",
      "type": "function"
    },
    {
      "inputs": [
        {
          "internalType": "address",
          "name": "_owner",
          "type": "address"
        }
      ],
      "name": "tokensOfOwner",
      "outputs": [
        {
          "internalType": "uint256[]",
          "name": "",
          "type": "uint256[]"
        }
      ],
      "stateMutability": "view",
      "type": "function",
      "constant": true
    }
  ],
  "bytecode": "0x60806040526032600c5566f8b0a10e470000600d556000600e60006101000a81548160ff0219169083151502179055503480156200003c57600080fd5b506040518060400160405280600a81526020017f446f676546656c6c6173000000000000000000000000000000000000000000008152506040518060400160405280600681526020017f46454c4c415300000000000000000000000000000000000000000000000000008152508160009080519060200190620000c1929190620002d0565b508060019080519060200190620000da929190620002d0565b505050620000fd620000f16200012d60201b60201c565b6200013560201b60201c565b620001276040518060600160405280602181526020016200463260219139620001fb60201b60201c565b62000468565b600033905090565b6000600a60009054906101000a900473ffffffffffffffffffffffffffffffffffffffff16905081600a60006101000a81548173ffffffffffffffffffffffffffffffffffffffff021916908373ffffffffffffffffffffffffffffffffffffffff1602179055508173ffffffffffffffffffffffffffffffffffffffff168173ffffffffffffffffffffffffffffffffffffffff167f8be0079c531659141344cd1fd0a4f28419497f9722a3daafe3b4186f6b6457e060405160405180910390a35050565b6200020b6200012d60201b60201c565b73ffffffffffffffffffffffffffffffffffffffff1662000231620002a660201b60201c565b73ffffffffffffffffffffffffffffffffffffffff16146200028a576040517f08c379a00000000000000000000000000000000000000000000000000000000081526004016200028190620003a7565b60405180910390fd5b80600b9080519060200190620002a2929190620002d0565b5050565b6000600a60009054906101000a900473ffffffffffffffffffffffffffffffffffffffff16905090565b828054620002de90620003da565b90600052602060002090601f0160209004810192826200030257600085556200034e565b82601f106200031d57805160ff19168380011785556200034e565b828001600101855582156200034e579182015b828111156200034d57825182559160200191906001019062000330565b5b5090506200035d919062000361565b5090565b5b808211156200037c57600081600090555060010162000362565b5090565b60006200038f602083620003c9565b91506200039c826200043f565b602082019050919050565b60006020820190508181036000830152620003c28162000380565b9050919050565b600082825260208201905092915050565b60006002820490506001821680620003f357607f821691505b602082108114156200040a576200040962000410565b5b50919050565b7f4e487b7100000000000000000000000000000000000000000000000000000000600052602260045260246000fd5b7f4f776e61626c653a2063616c6c6572206973206e6f7420746865206f776e6572600082015250565b6141ba80620004786000396000f3fe6080604052600436106101cd5760003560e01c806355f804b3116100f757806395d89b4111610095578063bedb86fb11610064578063bedb86fb14610655578063c87b56dd1461067e578063e985e9c5146106bb578063f2fde38b146106f8576101cd565b806395d89b41146105ad57806398d5fdca146105d8578063a22cb46514610603578063b88d4fde1461062c576101cd565b8063715018a6116100d1578063715018a6146105055780638462151c1461051c5780638da5cb5b1461055957806391b7f5ed14610584576101cd565b806355f804b3146104625780636352211e1461048b57806370a08231146104c8576101cd565b80631aebb8aa1161016f57806342842e0e1161013e57806342842e0e14610394578063438b6300146103bd5780634f6ccce7146103fa57806350ae65a414610437576101cd565b80631aebb8aa1461030d57806323b872dd146103175780632f745c59146103405780633ccfd60b1461037d576101cd565b8063095ea7b3116101ab578063095ea7b31461027757806316c61ccc146102a057806318160ddd146102cb5780631a43ccb2146102f6576101cd565b806301ffc9a7146101d257806306fdde031461020f578063081812fc1461023a575b600080fd5b3480156101de57600080fd5b506101f960048036038101906101f49190612da0565b610721565b6040516102069190613374565b60405180910390f35b34801561021b57600080fd5b5061022461079b565b604051610231919061338f565b60405180910390f35b34801561024657600080fd5b50610261600480360381019061025c9190612e43565b61082d565b60405161026e91906132eb565b60405180910390f35b34801561028357600080fd5b5061029e60048036038101906102999190612d33565b6108b2565b005b3480156102ac57600080fd5b506102b56109ca565b6040516102c29190613374565b60405180910390f35b3480156102d757600080fd5b506102e06109dd565b6040516102ed9190613671565b60405180910390f35b34801561030257600080fd5b5061030b6109ea565b005b610315610af6565b005b34801561032357600080fd5b5061033e60048036038101906103399190612c1d565b610bf4565b005b34801561034c57600080fd5b5061036760048036038101906103629190612d33565b610c54565b6040516103749190613671565b60405180910390f35b34801561038957600080fd5b50610392610cf9565b005b3480156103a057600080fd5b506103bb60048036038101906103b69190612c1d565b610dc4565b005b3480156103c957600080fd5b506103e460048036038101906103df9190612bb0565b610de4565b6040516103f19190613352565b60405180910390f35b34801561040657600080fd5b50610421600480360381019061041c9190612e43565b610e92565b60405161042e9190613671565b60405180910390f35b34801561044357600080fd5b5061044c610f03565b6040516104599190613671565b60405180910390f35b34801561046e57600080fd5b5061048960048036038101906104849190612dfa565b610f09565b005b34801561049757600080fd5b506104b260048036038101906104ad9190612e43565b610f9f565b6040516104bf91906132eb565b60405180910390f35b3480156104d457600080fd5b506104ef60048036038101906104ea9190612bb0565b611051565b6040516104fc9190613671565b60405180910390f35b34801561051157600080fd5b5061051a611109565b005b34801561052857600080fd5b50610543600480360381019061053e9190612bb0565b611191565b6040516105509190613352565b60405180910390f35b34801561056557600080fd5b5061056e6112f1565b60405161057b91906132eb565b60405180910390f35b34801561059057600080fd5b506105ab60048036038101906105a69190612e43565b61131b565b005b3480156105b957600080fd5b506105c26113a1565b6040516105cf919061338f565b60405180910390f35b3480156105e457600080fd5b506105ed611433565b6040516105fa9190613671565b60405180910390f35b34801561060f57600080fd5b5061062a60048036038101906106259190612cf3565b61143d565b005b34801561063857600080fd5b50610653600480360381019061064e9190612c70565b6115be565b005b34801561066157600080fd5b5061067c60048036038101906106779190612d73565b611620565b005b34801561068a57600080fd5b506106a560048036038101906106a09190612e43565b6116b9565b6040516106b2919061338f565b60405180910390f35b3480156106c757600080fd5b506106e260048036038101906106dd9190612bdd565b611760565b6040516106ef9190613374565b60405180910390f35b34801561070457600080fd5b5061071f600480360381019061071a9190612bb0565b6117f4565b005b60007f780e9d63000000000000000000000000000000000000000000000000000000007bffffffffffffffffffffffffffffffffffffffffffffffffffffffff1916827bffffffffffffffffffffffffffffffffffffffffffffffffffffffff191614806107945750610793826118ec565b5b9050919050565b6060600080546107aa90613900565b80601f01602080910402602001604051908101604052809291908181526020018280546107d690613900565b80156108235780601f106107f857610100808354040283529160200191610823565b820191906000526020600020905b81548152906001019060200180831161080657829003601f168201915b5050505050905090565b6000610838826119ce565b610877576040517f08c379a000000000000000000000000000000000000000000000000000000000815260040161086e90613551565b60405180910390fd5b6004600083815260200190815260200160002060009054906101000a900473ffffffffffffffffffffffffffffffffffffffff169050919050565b60006108bd82610f9f565b90508073ffffffffffffffffffffffffffffffffffffffff168373ffffffffffffffffffffffffffffffffffffffff16141561092e576040517f08c379a0000000000000000000000000000000000000000000000000000000008152600401610925906135d1565b60405180910390fd5b8073ffffffffffffffffffffffffffffffffffffffff1661094d611a3a565b73ffffffffffffffffffffffffffffffffffffffff16148061097c575061097b81610976611a3a565b611760565b5b6109bb576040517f08c379a00000000000000000000000000000000000000000000000000000000081526004016109b2906134d1565b60405180910390fd5b6109c58383611a42565b505050565b600e60009054906101000a900460ff1681565b6000600880549050905090565b6109f2611a3a565b73ffffffffffffffffffffffffffffffffffffffff16610a106112f1565b73ffffffffffffffffffffffffffffffffffffffff1614610a66576040517f08c379a0000000000000000000000000000000000000000000000000000000008152600401610a5d90613571565b60405180910390fd5b6000610a706109dd565b9050600c548110610ab6576040517f08c379a0000000000000000000000000000000000000000000000000000000008152600401610aad906133d1565b60405180910390fd5b60005b600c54811015610af257610adf610ace6112f1565b8284610ada919061378f565b611afb565b8080610aea90613963565b915050610ab9565b5050565b6000610b006109dd565b9050600e60009054906101000a900460ff1615610b52576040517f08c379a0000000000000000000000000000000000000000000000000000000008152600401610b4990613651565b60405180910390fd5b611e61811115610b97576040517f08c379a0000000000000000000000000000000000000000000000000000000008152600401610b8e90613611565b60405180910390fd5b34600d5414610bdb576040517f08c379a0000000000000000000000000000000000000000000000000000000008152600401610bd2906133b1565b60405180910390fd5b610bf133600183610bec919061378f565b611afb565b50565b610c05610bff611a3a565b82611b19565b610c44576040517f08c379a0000000000000000000000000000000000000000000000000000000008152600401610c3b906135f1565b60405180910390fd5b610c4f838383611bf7565b505050565b6000610c5f83611051565b8210610ca0576040517f08c379a0000000000000000000000000000000000000000000000000000000008152600401610c97906133f1565b60405180910390fd5b600660008473ffffffffffffffffffffffffffffffffffffffff1673ffffffffffffffffffffffffffffffffffffffff168152602001908152602001600020600083815260200190815260200160002054905092915050565b610d01611a3a565b73ffffffffffffffffffffffffffffffffffffffff16610d1f6112f1565b73ffffffffffffffffffffffffffffffffffffffff1614610d75576040517f08c379a0000000000000000000000000000000000000000000000000000000008152600401610d6c90613571565b60405180910390fd5b60004790503373ffffffffffffffffffffffffffffffffffffffff166108fc829081150290604051600060405180830381858888f19350505050158015610dc0573d6000803e3d6000fd5b5050565b610ddf838383604051806020016040528060008152506115be565b505050565b60606000610df183611051565b905060008167ffffffffffffffff811115610e0f57610e0e613ac8565b5b604051908082528060200260200182016040528015610e3d5781602001602082028036833780820191505090505b50905060005b82811015610e8757610e558582610c54565b828281518110610e6857610e67613a99565b5b6020026020010181815250508080610e7f90613963565b915050610e43565b508092505050919050565b6000610e9c6109dd565b8210610edd576040517f08c379a0000000000000000000000000000000000000000000000000000000008152600401610ed490613631565b60405180910390fd5b60088281548110610ef157610ef0613a99565b5b90600052602060002001549050919050565b611e6181565b610f11611a3a565b73ffffffffffffffffffffffffffffffffffffffff16610f2f6112f1565b73ffffffffffffffffffffffffffffffffffffffff1614610f85576040517f08c379a0000000000000000000000000000000000000000000000000000000008152600401610f7c90613571565b60405180910390fd5b80600b9080519060200190610f9b9291906129c4565b5050565b6000806002600084815260200190815260200160002060009054906101000a900473ffffffffffffffffffffffffffffffffffffffff169050600073ffffffffffffffffffffffffffffffffffffffff168173ffffffffffffffffffffffffffffffffffffffff161415611048576040517f08c379a000000000000000000000000000000000000000000000000000000000815260040161103f90613511565b60405180910390fd5b80915050919050565b60008073ffffffffffffffffffffffffffffffffffffffff168273ffffffffffffffffffffffffffffffffffffffff1614156110c2576040517f08c379a00000000000000000000000000000000000000000000000000000000081526004016110b9906134f1565b60405180910390fd5b600360008373ffffffffffffffffffffffffffffffffffffffff1673ffffffffffffffffffffffffffffffffffffffff168152602001908152602001600020549050919050565b611111611a3a565b73ffffffffffffffffffffffffffffffffffffffff1661112f6112f1565b73ffffffffffffffffffffffffffffffffffffffff1614611185576040517f08c379a000000000000000000000000000000000000000000000000000000000815260040161117c90613571565b60405180910390fd5b61118f6000611e53565b565b6060600061119e83611051565b905060008114156111fb57600067ffffffffffffffff8111156111c4576111c3613ac8565b5b6040519080825280602002602001820160405280156111f25781602001602082028036833780820191505090505b509150506112ec565b60008167ffffffffffffffff81111561121757611216613ac8565b5b6040519080825280602002602001820160405280156112455781602001602082028036833780820191505090505b5090506000805b60016112566109dd565b6112609190613816565b81116112e4578573ffffffffffffffffffffffffffffffffffffffff1661128682610f9f565b73ffffffffffffffffffffffffffffffffffffffff1614156112d157808383815181106112b6576112b5613a99565b5b60200260200101818152505081806112cd90613963565b9250505b80806112dc90613963565b91505061124c565b508193505050505b919050565b6000600a60009054906101000a900473ffffffffffffffffffffffffffffffffffffffff16905090565b611323611a3a565b73ffffffffffffffffffffffffffffffffffffffff166113416112f1565b73ffffffffffffffffffffffffffffffffffffffff1614611397576040517f08c379a000000000000000000000000000000000000000000000000000000000815260040161138e90613571565b60405180910390fd5b80600d8190555050565b6060600180546113b090613900565b80601f01602080910402602001604051908101604052809291908181526020018280546113dc90613900565b80156114295780601f106113fe57610100808354040283529160200191611429565b820191906000526020600020905b81548152906001019060200180831161140c57829003601f168201915b5050505050905090565b6000600d54905090565b611445611a3a565b73ffffffffffffffffffffffffffffffffffffffff168273ffffffffffffffffffffffffffffffffffffffff1614156114b3576040517f08c379a00000000000000000000000000000000000000000000000000000000081526004016114aa90613491565b60405180910390fd5b80600560006114c0611a3a565b73ffffffffffffffffffffffffffffffffffffffff1673ffffffffffffffffffffffffffffffffffffffff16815260200190815260200160002060008473ffffffffffffffffffffffffffffffffffffffff1673ffffffffffffffffffffffffffffffffffffffff16815260200190815260200160002060006101000a81548160ff0219169083151502179055508173ffffffffffffffffffffffffffffffffffffffff1661156d611a3a565b73ffffffffffffffffffffffffffffffffffffffff167f17307eab39ab6107e8899845ad3d59bd9653f200f220920489ca2b5937696c31836040516115b29190613374565b60405180910390a35050565b6115cf6115c9611a3a565b83611b19565b61160e576040517f08c379a0000000000000000000000000000000000000000000000000000000008152600401611605906135f1565b60405180910390fd5b61161a84848484611f19565b50505050565b611628611a3a565b73ffffffffffffffffffffffffffffffffffffffff166116466112f1565b73ffffffffffffffffffffffffffffffffffffffff161461169c576040517f08c379a000000000000000000000000000000000000000000000000000000000815260040161169390613571565b60405180910390fd5b80600e60006101000a81548160ff02191690831515021790555050565b60606116c4826119ce565b611703576040517f08c379a00000000000000000000000000000000000000000000000000000000081526004016116fa906135b1565b60405180910390fd5b600061170d611f75565b9050600081511161172d5760405180602001604052806000815250611758565b8061173784612007565b6040516020016117489291906132c7565b6040516020818303038152906040525b915050919050565b6000600560008473ffffffffffffffffffffffffffffffffffffffff1673ffffffffffffffffffffffffffffffffffffffff16815260200190815260200160002060008373ffffffffffffffffffffffffffffffffffffffff1673ffffffffffffffffffffffffffffffffffffffff16815260200190815260200160002060009054906101000a900460ff16905092915050565b6117fc611a3a565b73ffffffffffffffffffffffffffffffffffffffff1661181a6112f1565b73ffffffffffffffffffffffffffffffffffffffff1614611870576040517f08c379a000000000000000000000000000000000000000000000000000000000815260040161186790613571565b60405180910390fd5b600073ffffffffffffffffffffffffffffffffffffffff168173ffffffffffffffffffffffffffffffffffffffff1614156118e0576040517f08c379a00000000000000000000000000000000000000000000000000000000081526004016118d790613431565b60405180910390fd5b6118e981611e53565b50565b60007f80ac58cd000000000000000000000000000000000000000000000000000000007bffffffffffffffffffffffffffffffffffffffffffffffffffffffff1916827bffffffffffffffffffffffffffffffffffffffffffffffffffffffff191614806119b757507f5b5e139f000000000000000000000000000000000000000000000000000000007bffffffffffffffffffffffffffffffffffffffffffffffffffffffff1916827bffffffffffffffffffffffffffffffffffffffffffffffffffffffff1916145b806119c757506119c682612168565b5b9050919050565b60008073ffffffffffffffffffffffffffffffffffffffff166002600084815260200190815260200160002060009054906101000a900473ffffffffffffffffffffffffffffffffffffffff1673ffffffffffffffffffffffffffffffffffffffff1614159050919050565b600033905090565b816004600083815260200190815260200160002060006101000a81548173ffffffffffffffffffffffffffffffffffffffff021916908373ffffffffffffffffffffffffffffffffffffffff160217905550808273ffffffffffffffffffffffffffffffffffffffff16611ab583610f9f565b73ffffffffffffffffffffffffffffffffffffffff167f8c5be1e5ebec7d5bd14f71427d1e84f3dd0314c0f7b2291e5b200ac8c7c3b92560405160405180910390a45050565b611b158282604051806020016040528060008152506121d2565b5050565b6000611b24826119ce565b611b63576040517f08c379a0000000000000000000000000000000000000000000000000000000008152600401611b5a906134b1565b60405180910390fd5b6000611b6e83610f9f565b90508073ffffffffffffffffffffffffffffffffffffffff168473ffffffffffffffffffffffffffffffffffffffff161480611bdd57508373ffffffffffffffffffffffffffffffffffffffff16611bc58461082d565b73ffffffffffffffffffffffffffffffffffffffff16145b80611bee5750611bed8185611760565b5b91505092915050565b8273ffffffffffffffffffffffffffffffffffffffff16611c1782610f9f565b73ffffffffffffffffffffffffffffffffffffffff1614611c6d576040517f08c379a0000000000000000000000000000000000000000000000000000000008152600401611c6490613591565b60405180910390fd5b600073ffffffffffffffffffffffffffffffffffffffff168273ffffffffffffffffffffffffffffffffffffffff161415611cdd576040517f08c379a0000000000000000000000000000000000000000000000000000000008152600401611cd490613471565b60405180910390fd5b611ce883838361222d565b611cf3600082611a42565b6001600360008573ffffffffffffffffffffffffffffffffffffffff1673ffffffffffffffffffffffffffffffffffffffff1681526020019081526020016000206000828254611d439190613816565b925050819055506001600360008473ffffffffffffffffffffffffffffffffffffffff1673ffffffffffffffffffffffffffffffffffffffff1681526020019081526020016000206000828254611d9a919061378f565b92505081905550816002600083815260200190815260200160002060006101000a81548173ffffffffffffffffffffffffffffffffffffffff021916908373ffffffffffffffffffffffffffffffffffffffff160217905550808273ffffffffffffffffffffffffffffffffffffffff168473ffffffffffffffffffffffffffffffffffffffff167fddf252ad1be2c89b69c2b068fc378daa952ba7f163c4a11628f55a4df523b3ef60405160405180910390a4505050565b6000600a60009054906101000a900473ffffffffffffffffffffffffffffffffffffffff16905081600a60006101000a81548173ffffffffffffffffffffffffffffffffffffffff021916908373ffffffffffffffffffffffffffffffffffffffff1602179055508173ffffffffffffffffffffffffffffffffffffffff168173ffffffffffffffffffffffffffffffffffffffff167f8be0079c531659141344cd1fd0a4f28419497f9722a3daafe3b4186f6b6457e060405160405180910390a35050565b611f24848484611bf7565b611f3084848484612341565b611f6f576040517f08c379a0000000000000000000000000000000000000000000000000000000008152600401611f6690613411565b60405180910390fd5b50505050565b6060600b8054611f8490613900565b80601f0160208091040260200160405190810160405280929190818152602001828054611fb090613900565b8015611ffd5780601f10611fd257610100808354040283529160200191611ffd565b820191906000526020600020905b815481529060010190602001808311611fe057829003601f168201915b5050505050905090565b6060600082141561204f576040518060400160405280600181526020017f30000000000000000000000000000000000000000000000000000000000000008152509050612163565b600082905060005b6000821461208157808061206a90613963565b915050600a8261207a91906137e5565b9150612057565b60008167ffffffffffffffff81111561209d5761209c613ac8565b5b6040519080825280601f01601f1916602001820160405280156120cf5781602001600182028036833780820191505090505b5090505b6000851461215c576001826120e89190613816565b9150600a856120f791906139ac565b6030612103919061378f565b60f81b81838151811061211957612118613a99565b5b60200101907effffffffffffffffffffffffffffffffffffffffffffffffffffffffffffff1916908160001a905350600a8561215591906137e5565b94506120d3565b8093505050505b919050565b60007f01ffc9a7000000000000000000000000000000000000000000000000000000007bffffffffffffffffffffffffffffffffffffffffffffffffffffffff1916827bffffffffffffffffffffffffffffffffffffffffffffffffffffffff1916149050919050565b6121dc83836124d8565b6121e96000848484612341565b612228576040517f08c379a000000000000000000000000000000000000000000000000000000000815260040161221f90613411565b60405180910390fd5b505050565b6122388383836126a6565b600073ffffffffffffffffffffffffffffffffffffffff168373ffffffffffffffffffffffffffffffffffffffff16141561227b57612276816126ab565b6122ba565b8173ffffffffffffffffffffffffffffffffffffffff168373ffffffffffffffffffffffffffffffffffffffff16146122b9576122b883826126f4565b5b5b600073ffffffffffffffffffffffffffffffffffffffff168273ffffffffffffffffffffffffffffffffffffffff1614156122fd576122f881612861565b61233c565b8273ffffffffffffffffffffffffffffffffffffffff168273ffffffffffffffffffffffffffffffffffffffff161461233b5761233a8282612932565b5b5b505050565b60006123628473ffffffffffffffffffffffffffffffffffffffff166129b1565b156124cb578373ffffffffffffffffffffffffffffffffffffffff1663150b7a0261238b611a3a565b8786866040518563ffffffff1660e01b81526004016123ad9493929190613306565b602060405180830381600087803b1580156123c757600080fd5b505af19250505080156123f857506040513d601f19601f820116820180604052508101906123f59190612dcd565b60015b61247b573d8060008114612428576040519150601f19603f3d011682016040523d82523d6000602084013e61242d565b606091505b50600081511415612473576040517f08c379a000000000000000000000000000000000000000000000000000000000815260040161246a90613411565b60405180910390fd5b805181602001fd5b63150b7a0260e01b7bffffffffffffffffffffffffffffffffffffffffffffffffffffffff1916817bffffffffffffffffffffffffffffffffffffffffffffffffffffffff1916149150506124d0565b600190505b949350505050565b600073ffffffffffffffffffffffffffffffffffffffff168273ffffffffffffffffffffffffffffffffffffffff161415612548576040517f08c379a000000000000000000000000000000000000000000000000000000000815260040161253f90613531565b60405180910390fd5b612551816119ce565b15612591576040517f08c379a000000000000000000000000000000000000000000000000000000000815260040161258890613451565b60405180910390fd5b61259d6000838361222d565b6001600360008473ffffffffffffffffffffffffffffffffffffffff1673ffffffffffffffffffffffffffffffffffffffff16815260200190815260200160002060008282546125ed919061378f565b92505081905550816002600083815260200190815260200160002060006101000a81548173ffffffffffffffffffffffffffffffffffffffff021916908373ffffffffffffffffffffffffffffffffffffffff160217905550808273ffffffffffffffffffffffffffffffffffffffff16600073ffffffffffffffffffffffffffffffffffffffff167fddf252ad1be2c89b69c2b068fc378daa952ba7f163c4a11628f55a4df523b3ef60405160405180910390a45050565b505050565b6008805490506009600083815260200190815260200160002081905550600881908060018154018082558091505060019003906000526020600020016000909190919091505550565b6000600161270184611051565b61270b9190613816565b90506000600760008481526020019081526020016000205490508181146127f0576000600660008673ffffffffffffffffffffffffffffffffffffffff1673ffffffffffffffffffffffffffffffffffffffff168152602001908152602001600020600084815260200190815260200160002054905080600660008773ffffffffffffffffffffffffffffffffffffffff1673ffffffffffffffffffffffffffffffffffffffff168152602001908152602001600020600084815260200190815260200160002081905550816007600083815260200190815260200160002081905550505b6007600084815260200190815260200160002060009055600660008573ffffffffffffffffffffffffffffffffffffffff1673ffffffffffffffffffffffffffffffffffffffff16815260200190815260200160002060008381526020019081526020016000206000905550505050565b600060016008805490506128759190613816565b90506000600960008481526020019081526020016000205490506000600883815481106128a5576128a4613a99565b5b9060005260206000200154905080600883815481106128c7576128c6613a99565b5b90600052602060002001819055508160096000838152602001908152602001600020819055506009600085815260200190815260200160002060009055600880548061291657612915613a6a565b5b6001900381819060005260206000200160009055905550505050565b600061293d83611051565b905081600660008573ffffffffffffffffffffffffffffffffffffffff1673ffffffffffffffffffffffffffffffffffffffff168152602001908152602001600020600083815260200190815260200160002081905550806007600084815260200190815260200160002081905550505050565b600080823b905060008111915050919050565b8280546129d090613900565b90600052602060002090601f0160209004810192826129f25760008555612a39565b82601f10612a0b57805160ff1916838001178555612a39565b82800160010185558215612a39579182015b82811115612a38578251825591602001919060010190612a1d565b5b509050612a469190612a4a565b5090565b5b80821115612a63576000816000905550600101612a4b565b5090565b6000612a7a612a75846136b1565b61368c565b905082815260208101848484011115612a9657612a95613afc565b5b612aa18482856138be565b509392505050565b6000612abc612ab7846136e2565b61368c565b905082815260208101848484011115612ad857612ad7613afc565b5b612ae38482856138be565b509392505050565b600081359050612afa81614128565b92915050565b600081359050612b0f8161413f565b92915050565b600081359050612b2481614156565b92915050565b600081519050612b3981614156565b92915050565b600082601f830112612b5457612b53613af7565b5b8135612b64848260208601612a67565b91505092915050565b600082601f830112612b8257612b81613af7565b5b8135612b92848260208601612aa9565b91505092915050565b600081359050612baa8161416d565b92915050565b600060208284031215612bc657612bc5613b06565b5b6000612bd484828501612aeb565b91505092915050565b60008060408385031215612bf457612bf3613b06565b5b6000612c0285828601612aeb565b9250506020612c1385828601612aeb565b9150509250929050565b600080600060608486031215612c3657612c35613b06565b5b6000612c4486828701612aeb565b9350506020612c5586828701612aeb565b9250506040612c6686828701612b9b565b9150509250925092565b60008060008060808587031215612c8a57612c89613b06565b5b6000612c9887828801612aeb565b9450506020612ca987828801612aeb565b9350506040612cba87828801612b9b565b925050606085013567ffffffffffffffff811115612cdb57612cda613b01565b5b612ce787828801612b3f565b91505092959194509250565b60008060408385031215612d0a57612d09613b06565b5b6000612d1885828601612aeb565b9250506020612d2985828601612b00565b9150509250929050565b60008060408385031215612d4a57612d49613b06565b5b6000612d5885828601612aeb565b9250506020612d6985828601612b9b565b9150509250929050565b600060208284031215612d8957612d88613b06565b5b6000612d9784828501612b00565b91505092915050565b600060208284031215612db657612db5613b06565b5b6000612dc484828501612b15565b91505092915050565b600060208284031215612de357612de2613b06565b5b6000612df184828501612b2a565b91505092915050565b600060208284031215612e1057612e0f613b06565b5b600082013567ffffffffffffffff811115612e2e57612e2d613b01565b5b612e3a84828501612b6d565b91505092915050565b600060208284031215612e5957612e58613b06565b5b6000612e6784828501612b9b565b91505092915050565b6000612e7c83836132a9565b60208301905092915050565b612e918161384a565b82525050565b6000612ea282613723565b612eac8185613751565b9350612eb783613713565b8060005b83811015612ee8578151612ecf8882612e70565b9750612eda83613744565b925050600181019050612ebb565b5085935050505092915050565b612efe8161385c565b82525050565b6000612f0f8261372e565b612f198185613762565b9350612f298185602086016138cd565b612f3281613b0b565b840191505092915050565b6000612f4882613739565b612f528185613773565b9350612f628185602086016138cd565b612f6b81613b0b565b840191505092915050565b6000612f8182613739565b612f8b8185613784565b9350612f9b8185602086016138cd565b80840191505092915050565b6000612fb4602283613773565b9150612fbf82613b1c565b604082019050919050565b6000612fd7602483613773565b9150612fe282613b6b565b604082019050919050565b6000612ffa602b83613773565b915061300582613bba565b604082019050919050565b600061301d603283613773565b915061302882613c09565b604082019050919050565b6000613040602683613773565b915061304b82613c58565b604082019050919050565b6000613063601c83613773565b915061306e82613ca7565b602082019050919050565b6000613086602483613773565b915061309182613cd0565b604082019050919050565b60006130a9601983613773565b91506130b482613d1f565b602082019050919050565b60006130cc602c83613773565b91506130d782613d48565b604082019050919050565b60006130ef603883613773565b91506130fa82613d97565b604082019050919050565b6000613112602a83613773565b915061311d82613de6565b604082019050919050565b6000613135602983613773565b915061314082613e35565b604082019050919050565b6000613158602083613773565b915061316382613e84565b602082019050919050565b600061317b602c83613773565b915061318682613ead565b604082019050919050565b600061319e602083613773565b91506131a982613efc565b602082019050919050565b60006131c1602983613773565b91506131cc82613f25565b604082019050919050565b60006131e4602f83613773565b91506131ef82613f74565b604082019050919050565b6000613207602183613773565b915061321282613fc3565b604082019050919050565b600061322a603183613773565b915061323582614012565b604082019050919050565b600061324d602383613773565b915061325882614061565b604082019050919050565b6000613270602c83613773565b915061327b826140b0565b604082019050919050565b6000613293601f83613773565b915061329e826140ff565b602082019050919050565b6132b2816138b4565b82525050565b6132c1816138b4565b82525050565b60006132d38285612f76565b91506132df8284612f76565b91508190509392505050565b60006020820190506133006000830184612e88565b92915050565b600060808201905061331b6000830187612e88565b6133286020830186612e88565b61333560408301856132b8565b81810360608301526133478184612f04565b905095945050505050565b6000602082019050818103600083015261336c8184612e97565b905092915050565b60006020820190506133896000830184612ef5565b92915050565b600060208201905081810360008301526133a98184612f3d565b905092915050565b600060208201905081810360008301526133ca81612fa7565b9050919050565b600060208201905081810360008301526133ea81612fca565b9050919050565b6000602082019050818103600083015261340a81612fed565b9050919050565b6000602082019050818103600083015261342a81613010565b9050919050565b6000602082019050818103600083015261344a81613033565b9050919050565b6000602082019050818103600083015261346a81613056565b9050919050565b6000602082019050818103600083015261348a81613079565b9050919050565b600060208201905081810360008301526134aa8161309c565b9050919050565b600060208201905081810360008301526134ca816130bf565b9050919050565b600060208201905081810360008301526134ea816130e2565b9050919050565b6000602082019050818103600083015261350a81613105565b9050919050565b6000602082019050818103600083015261352a81613128565b9050919050565b6000602082019050818103600083015261354a8161314b565b9050919050565b6000602082019050818103600083015261356a8161316e565b9050919050565b6000602082019050818103600083015261358a81613191565b9050919050565b600060208201905081810360008301526135aa816131b4565b9050919050565b600060208201905081810360008301526135ca816131d7565b9050919050565b600060208201905081810360008301526135ea816131fa565b9050919050565b6000602082019050818103600083015261360a8161321d565b9050919050565b6000602082019050818103600083015261362a81613240565b9050919050565b6000602082019050818103600083015261364a81613263565b9050919050565b6000602082019050818103600083015261366a81613286565b9050919050565b600060208201905061368660008301846132b8565b92915050565b60006136966136a7565b90506136a28282613932565b919050565b6000604051905090565b600067ffffffffffffffff8211156136cc576136cb613ac8565b5b6136d582613b0b565b9050602081019050919050565b600067ffffffffffffffff8211156136fd576136fc613ac8565b5b61370682613b0b565b9050602081019050919050565b6000819050602082019050919050565b600081519050919050565b600081519050919050565b600081519050919050565b6000602082019050919050565b600082825260208201905092915050565b600082825260208201905092915050565b600082825260208201905092915050565b600081905092915050565b600061379a826138b4565b91506137a5836138b4565b9250827fffffffffffffffffffffffffffffffffffffffffffffffffffffffffffffffff038211156137da576137d96139dd565b5b828201905092915050565b60006137f0826138b4565b91506137fb836138b4565b92508261380b5761380a613a0c565b5b828204905092915050565b6000613821826138b4565b915061382c836138b4565b92508282101561383f5761383e6139dd565b5b828203905092915050565b600061385582613894565b9050919050565b60008115159050919050565b60007fffffffff0000000000000000000000000000000000000000000000000000000082169050919050565b600073ffffffffffffffffffffffffffffffffffffffff82169050919050565b6000819050919050565b82818337600083830152505050565b60005b838110156138eb5780820151818401526020810190506138d0565b838111156138fa576000848401525b50505050565b6000600282049050600182168061391857607f821691505b6020821081141561392c5761392b613a3b565b5b50919050565b61393b82613b0b565b810181811067ffffffffffffffff8211171561395a57613959613ac8565b5b80604052505050565b600061396e826138b4565b91507fffffffffffffffffffffffffffffffffffffffffffffffffffffffffffffffff8214156139a1576139a06139dd565b5b600182019050919050565b60006139b7826138b4565b91506139c2836138b4565b9250826139d2576139d1613a0c565b5b828206905092915050565b7f4e487b7100000000000000000000000000000000000000000000000000000000600052601160045260246000fd5b7f4e487b7100000000000000000000000000000000000000000000000000000000600052601260045260246000fd5b7f4e487b7100000000000000000000000000000000000000000000000000000000600052602260045260246000fd5b7f4e487b7100000000000000000000000000000000000000000000000000000000600052603160045260246000fd5b7f4e487b7100000000000000000000000000000000000000000000000000000000600052603260045260246000fd5b7f4e487b7100000000000000000000000000000000000000000000000000000000600052604160045260246000fd5b600080fd5b600080fd5b600080fd5b600080fd5b6000601f19601f8301169050919050565b7f416d6f756e74206f6620424e422073656e74206973206e6f7420636f7272656360008201527f742e000000000000000000000000000000000000000000000000000000000000602082015250565b7f416c72656164792072657365727665642074686520666972737420766f75636860008201527f6572732e00000000000000000000000000000000000000000000000000000000602082015250565b7f455243373231456e756d657261626c653a206f776e657220696e646578206f7560008201527f74206f6620626f756e6473000000000000000000000000000000000000000000602082015250565b7f4552433732313a207472616e7366657220746f206e6f6e20455243373231526560008201527f63656976657220696d706c656d656e7465720000000000000000000000000000602082015250565b7f4f776e61626c653a206e6577206f776e657220697320746865207a65726f206160008201527f6464726573730000000000000000000000000000000000000000000000000000602082015250565b7f4552433732313a20746f6b656e20616c7265616479206d696e74656400000000600082015250565b7f4552433732313a207472616e7366657220746f20746865207a65726f2061646460008201527f7265737300000000000000000000000000000000000000000000000000000000602082015250565b7f4552433732313a20617070726f766520746f2063616c6c657200000000000000600082015250565b7f4552433732313a206f70657261746f7220717565727920666f72206e6f6e657860008201527f697374656e7420746f6b656e0000000000000000000000000000000000000000602082015250565b7f4552433732313a20617070726f76652063616c6c6572206973206e6f74206f7760008201527f6e6572206e6f7220617070726f76656420666f7220616c6c0000000000000000602082015250565b7f4552433732313a2062616c616e636520717565727920666f7220746865207a6560008201527f726f206164647265737300000000000000000000000000000000000000000000602082015250565b7f4552433732313a206f776e657220717565727920666f72206e6f6e657869737460008201527f656e7420746f6b656e0000000000000000000000000000000000000000000000602082015250565b7f4552433732313a206d696e7420746f20746865207a65726f2061646472657373600082015250565b7f4552433732313a20617070726f76656420717565727920666f72206e6f6e657860008201527f697374656e7420746f6b656e0000000000000000000000000000000000000000602082015250565b7f4f776e61626c653a2063616c6c6572206973206e6f7420746865206f776e6572600082015250565b7f4552433732313a207472616e73666572206f6620746f6b656e2074686174206960008201527f73206e6f74206f776e0000000000000000000000000000000000000000000000602082015250565b7f4552433732314d657461646174613a2055524920717565727920666f72206e6f60008201527f6e6578697374656e7420746f6b656e0000000000000000000000000000000000602082015250565b7f4552433732313a20617070726f76616c20746f2063757272656e74206f776e6560008201527f7200000000000000000000000000000000000000000000000000000000000000602082015250565b7f4552433732313a207472616e736665722063616c6c6572206973206e6f74206f60008201527f776e6572206e6f7220617070726f766564000000000000000000000000000000602082015250565b7f45786365656473206d6178696d756d20766f75636865727320617661696c616260008201527f6c652e0000000000000000000000000000000000000000000000000000000000602082015250565b7f455243373231456e756d657261626c653a20676c6f62616c20696e646578206f60008201527f7574206f6620626f756e64730000000000000000000000000000000000000000602082015250565b7f566f75636865722073616c6520686173206e6f742079657420626567756e2e00600082015250565b6141318161384a565b811461413c57600080fd5b50565b6141488161385c565b811461415357600080fd5b50565b61415f81613868565b811461416a57600080fd5b50565b614176816138b4565b811461418157600080fd5b5056fea2646970667358221220039bc3b8c9dc45b5dd96b040ff508dbf22390f6f8fc8acf9b62ed3993ed4345c64736f6c63430008070033687474703a2f2f6c6f63616c686f73743a333030302f6e66742f6467662f6d642f",
  "immutableReferences": {},
  "source": "pragma solidity ^0.8.7;\r\n\r\nimport \"@openzeppelin/contracts/token/ERC721/ERC721.sol\";\r\nimport \"@openzeppelin/contracts/token/ERC721/extensions/ERC721Enumerable.sol\";\r\nimport \"@openzeppelin/contracts/access/Ownable.sol\";\r\n\r\ncontract DogeFellas is ERC721Enumerable, Ownable {\r\n\r\n    string _baseTokenURI;\r\n    uint256 private _reservedVouchers = 50;\r\n    uint256 private _price = 0.07 ether;\r\n    bool public _paused = false;\r\n\r\n\r\n    uint256 public constant TOTAL_VOUCHER_SUPPLY = 7777;\r\n\r\n    struct Voucher {\r\n      uint id; \r\n      uint8 level; \r\n    }\r\n\r\n    constructor() ERC721(\"DogeFellas\", \"FELLAS\") {\r\n      setBaseURI(\"http://localhost:3000/nft/dgf/md/\");\r\n    }\r\n\r\n    function mintVoucher() public payable {\r\n      uint256 supply = totalSupply();\r\n      require(!_paused, \"Voucher sale has not yet begun.\");\r\n      require(supply <= TOTAL_VOUCHER_SUPPLY, \"Exceeds maximum vouchers available.\");\r\n      require(_price == msg.value, \"Amount of BNB sent is not correct.\");\r\n\r\n      _safeMint(msg.sender, supply+1);\r\n    }\r\n\r\n    function walletOfOwner(address _owner) public view returns(uint256[] memory) {\r\n      uint256 tokenCount = balanceOf(_owner);\r\n\r\n      uint256[] memory tokensId = new uint256[](tokenCount);\r\n      for(uint256 i; i < tokenCount; i++){\r\n          tokensId[i] = tokenOfOwnerByIndex(_owner, i);\r\n      }\r\n      return tokensId;\r\n    }\r\n\r\n    function setPrice(uint256 _newPrice) public onlyOwner() {\r\n      _price = _newPrice;\r\n    }\r\n\r\n    function _baseURI() internal view virtual override returns (string memory) {\r\n      return _baseTokenURI;\r\n    }\r\n\r\n    function setBaseURI(string memory baseURI) public onlyOwner {\r\n      _baseTokenURI = baseURI;\r\n    }\r\n\r\n    function getPrice() public view returns (uint256){\r\n      return _price;\r\n    }\r\n\r\n    function setPause(bool val) public onlyOwner {\r\n      _paused = val;\r\n    }\r\n\r\n    function withdraw() external onlyOwner {\r\n      uint balance = address(this).balance;\r\n      payable(msg.sender).transfer(balance);\r\n    }\r\n\r\n    function reserveGiveaway() public onlyOwner {\r\n      uint currentSupply = totalSupply();\r\n      require(currentSupply < _reservedVouchers, \"Already reserved the first vouchers.\");\r\n\r\n      for (uint i = 0; i < _reservedVouchers; i++) {\r\n          _safeMint(owner(), currentSupply + i);\r\n      }\r\n    }\r\n\r\n    /**\r\n    * @dev Returns a list of tokens that are owned by _owner.\r\n    * @dev NEVER call this function inside of the smart contract itself\r\n    * @dev because it is expensive.  Only return this from web3 calls\r\n    */\r\n    function tokensOfOwner(address _owner) external view returns(uint256[] memory) {\r\n      uint256 tokenCount = balanceOf(_owner);\r\n\r\n      if (tokenCount == 0) {\r\n        return new uint256[](0);\r\n      } else {\r\n        uint256[] memory result = new uint256[](tokenCount);\r\n        uint256 resultIndex = 0;\r\n\r\n        for (uint256 id = 0; id <= totalSupply() - 1; id++) {\r\n          if (ownerOf(id) == _owner) {\r\n            result[resultIndex] = id;\r\n            resultIndex++;\r\n          }\r\n        }\r\n\r\n        return result;\r\n      }\r\n    }\r\n\r\n}\r\n",
  "sourcePath": "/home/levi/dogefellas_presale/contracts/DogeFellas.sol",
  "compiler": {
    "name": "solc",
    "version": "0.8.7+commit.e28d00a7.Emscripten.clang"
  },
  "schemaVersion": "3.4.1",
  "updatedAt": "2021-09-05T10:15:10.044Z",
  "networkType": "ethereum",
  "devdoc": {
    "kind": "dev",
    "methods": {
      "approve(address,uint256)": {
        "details": "See {IERC721-approve}."
      },
      "balanceOf(address)": {
        "details": "See {IERC721-balanceOf}."
      },
      "getApproved(uint256)": {
        "details": "See {IERC721-getApproved}."
      },
      "isApprovedForAll(address,address)": {
        "details": "See {IERC721-isApprovedForAll}."
      },
      "name()": {
        "details": "See {IERC721Metadata-name}."
      },
      "owner()": {
        "details": "Returns the address of the current owner."
      },
      "ownerOf(uint256)": {
        "details": "See {IERC721-ownerOf}."
      },
      "renounceOwnership()": {
        "details": "Leaves the contract without owner. It will not be possible to call `onlyOwner` functions anymore. Can only be called by the current owner. NOTE: Renouncing ownership will leave the contract without an owner, thereby removing any functionality that is only available to the owner."
      },
      "safeTransferFrom(address,address,uint256)": {
        "details": "See {IERC721-safeTransferFrom}."
      },
      "safeTransferFrom(address,address,uint256,bytes)": {
        "details": "See {IERC721-safeTransferFrom}."
      },
      "setApprovalForAll(address,bool)": {
        "details": "See {IERC721-setApprovalForAll}."
      },
      "supportsInterface(bytes4)": {
        "details": "See {IERC165-supportsInterface}."
      },
      "symbol()": {
        "details": "See {IERC721Metadata-symbol}."
      },
      "tokenByIndex(uint256)": {
        "details": "See {IERC721Enumerable-tokenByIndex}."
      },
      "tokenOfOwnerByIndex(address,uint256)": {
        "details": "See {IERC721Enumerable-tokenOfOwnerByIndex}."
      },
      "tokenURI(uint256)": {
        "details": "See {IERC721Metadata-tokenURI}."
      },
      "tokensOfOwner(address)": {
        "details": "Returns a list of tokens that are owned by _owner.NEVER call this function inside of the smart contract itselfbecause it is expensive.  Only return this from web3 calls"
      },
      "totalSupply()": {
        "details": "See {IERC721Enumerable-totalSupply}."
      },
      "transferFrom(address,address,uint256)": {
        "details": "See {IERC721-transferFrom}."
      },
      "transferOwnership(address)": {
        "details": "Transfers ownership of the contract to a new account (`newOwner`). Can only be called by the current owner."
      }
    },
    "version": 1
  },
  "userdoc": {
    "kind": "user",
    "methods": {},
    "version": 1
  }
}